S0100000536D616C6C5F4F532E737265631A
S11300000C9432000C9487040C944F000C944F0011
S11300100C944F000C944F000C944F000C944F0020
S11300200C944F000C944F000C944F000C94450515
S11300300C944F000C944F000C944F000C944F0000
S11300400C944F000C944F000C944F000C944F00F0
S11300500C944F00E700EF00FD000B01180125018F
S113006032013F0111241FBECFE5D8E0DEBFCDBF72
S113007010E0A0E6B0E0E8E1FBE002C005900D92DC
S1130080AA36B107D9F720E0AAE6B0E001C01D9274
S1130090AD3EB207E1F70E94CF030C948A050C949D
S11300A0000090916D009230E9F028F4992341F01A
S11300B0913089F039C09330E1F0943041F134C08B
S11300C09BB39F70807F892B8BBB80916D008F5F6A
S11300D080936D000895D99880916D008F5F80930F
S11300E06D000895DB9A80916D008F5F80936D00A1
S11300F008952BB32F7030E1839FC0011124822B0C
S11301008BBB80916D008F5F80936D000895DB9AA7
S1130110DB9880916D008F5F80936D0081E0809308
S1130120730080937000089510926D00089590916B
S11301306C00913099F028F09230B9F0933021F1AD
S113014036C09BB39F70807F892B8BBBD99ADB9A77
S113015080916C008F5F80936C000895DB98809190
S11301606C008F5F80936C0008952BB32F7030E187
S1130170839FC0011124822B8BBBDB9A80916C007E
S11301808F5F80936C000895DB9880916C008F5F83
S113019080936C0081E080937200809371001092D0
S11301A0700080916F008F5F80936F0008951092AC
S11301B06C000895E0916B008E2F90E088309105DB
S11301C008F06EC0FC01E65DFF4F0C9484058FEFD0
S11301D08ABB80916B008F5F80936B00089583E3EB
S11301E00E94510080917300813009F059C082E06F
S11301F080936B0010927300089582E30E94510073
S113020080917300813009F04BC083E080936B00D0
S113021010927300089588E20E9451008091730047
S11302208130F1F584E080936B001092730008959F
S11302308CE00E94510080917300813089F585E043
S113024080936B0010927300089586E00E94510021
S113025080917300813021F586E080936B001092C9
S11302607300089581E00E945100809173008130F1
S1130270B9F487E080936B0010927300089580E8CE
S11302800E94510080917300813029F488E08093AA
S11302906B001092730081E0809374008093D5000A
S11302A0089580916A00882319F0813069F019C09B
S11302B081E00E945100809173008130B9F48093F1
S11302C06A0010927300089580E80E9451008091A2
S11302D07300813059F482E080936A0010927300B5
S11302E0089581E080936E0010926A000895823030
S11302F041F0843059F440E060E182E00E94E4037C
S1130300089540E064E081E00E94E40308958230AF
S113031021F18430D9F564E082E00E941804882336
S1130320C1F1809177008F5F8093770064E082E071
S11303300E941804882369F0809177008F3049F473
S11303401092770081E090917600992311F180E07A
S113035008951092760080E0089562E081E00E94A2
S113036018048823B1F0809175008F5F8093750025
S113037062E081E00E941804882359F0809175009E
S11303808F3031F41092750081E0089580E0089573
S113039080E0089581E08093D800089541155105C7
S11303A009F475C06115710509F473C02091D70073
S11303B030E0F901EE0FFF1FEE0FFF1FEE0FFF1FDE
S11303C02E0F3F1FF901E658FF4F11821082209132
S11303D0D70030E0F901EE0FFF1FEE0FFF1FEE0F05
S11303E0FF1F2E0F3F1FF901E658FF4F74836383ED
S11303F02091D70030E0F901EE0FFF1FEE0FFF1F31
S1130400EE0FFF1F2E0F3F1FF901E658FF4F8683A3
S11304108091D70090E0FC01EE0FFF1FEE0FFF1F4D
S1130420EE0FFF1F8E0F9F1FFC01E658FF4F5087F2
S113043047838091D7002091D60090E0FC01EE0F15
S1130440FF1FEE0FFF1FEE0FFF1F8E0F9F1FFC01FC
S1130450E658FF4F22838091D70090E0FC01EE0F15
S1130460FF1FEE0FFF1FEE0FFF1F8E0F9F1FFC01DC
S1130470E658FF4F15828091D7008F5F8093D70095
S11304808091D6008F5F8093D60081E0089580E04C
S1130490089580E008951092D8001092D700109229
S11304A0D60081E690E00E94E4046DE780E00E94BB
S11304B032058AEC91E00E94400581E00895809124
S11304C0D70090E0FC01EE0FFF1FEE0FFF1FEE0FB1
S11304D0FF1F8E0F9F1FFC01E658FF4FD68180E05F
S11304E00E942D0510E001E08091D8008130E1F7F1
S11304F01092D8008091D700882309F470C0C0E01E
S11305002C2F30E0F901EE0FFF1FEE0FFF1FEE0F4F
S1130510FF1FE20FF31FE658FF4F8581813039F545
S1130520F901EE0FFF1FEE0FFF1FEE0FFF1FE20F8B
S1130530F31FE658FF4F8081918101969183808358
S1130540638174810E947005892B09F042C0F9010E
S1130550EE0FFF1FEE0FFF1FEE0FFF1F2E0F3F1FAB
S1130560F901E658FF4F11821082158232C08111C1
S113057030C08091D7008823A9F0EFE7F0E020E0B5
S113058030E08081811105C081818D1710F0122F18
S1130590D82F2F5F3F4F8091D700399690E02817CE
S11305A039077CF3E12EF12CC701880F991F880FBE
S11305B0991F880F991F8E0D9F1D9C0126583F4F30
S11305C07901D9011796ED91FC9118970995F701D6
S11305D00583CF5F8091D700C81708F491CF80912D
S11305E0D70090E0FC01EE0FFF1FEE0FFF1FEE0F90
S11305F0FF1F8E0F9F1FFC01E658FF4FD68174CF5B
S1130600CF93DF93CDB7DEB729970FB6F894DEBF4B
S11306100FBECDBF9091D700992309F44BC090E051
S11306209C01220F331F220F331F220F331F820F0F
S1130630931F86589F4F22E0FC01258329E0DE01A9
S1130640119601900D922A95E1F7E091D700F0E020
S11306509F01220F331F220F331F220F331FE20F7C
S1130660F31FE658FF4F29E0DC0101900D922A9513
S1130670E1F7A091D700B0E0CD01880F991F880F52
S1130680991F880F991FA80FB91FA658BF4F89E05B
S1130690FE01319601900D928A95E1F78091D70081
S11306A081508093D7008091D60081508093D600EA
S11306B081E001C080E029960FB6F894DEBF0FBE3A
S11306C0CDBFDF91CF91089584E00E9487018823F4
S11306D029F0809160008F5F8093600082E00E9427
S11306E08701882329F08091600081508093600005
S11306F0809179008130A1F018F08230F9F020C0A7
S1130700809160000E949700809172008130C1F452
S1130710809179008F5F809379001092720010C0ED
S11307200E94510180916E00813051F480917900D2
S11307308F5F8093790010926E0002C0109279004E
S113074081E0089580917800882319F0813051F078
S113075015C084E00E947701809178008F5F8093B8
S113076078000FC00E94DA008091D500813049F4EE
S1130770809178008F5F8093780003C081E080933C
S1130780D4008091D400813019F480E00E940003E9
S113079008950E94640308950E94A20308950E948C
S11307A04B0249EC53E061E070E081E00E94CE012D
S11307B04CEC53E065E070E083E00E94CE010E94BF
S11307C05F0280E090E00895813089F028F0823063
S11307D0C9F0833011F108954F3F21F48AB3682B97
S11307E06ABB08958AB3609568236ABB08954F3F36
S11307F021F487B3682B67BB089587B3609568239A
S113080067BB08954F3F21F484B3682B64BB0895FC
S113081084B36095682364BB08954F3F21F481B38A
S1130820682B61BB089581B36095682361BB08950B
S11308308130C1F028F0823039F18330B9F148C0F9
S113084029B381E090E0062E02C0880F991F0A9414
S1130850E2F730E08223932302C0959587956A9549
S1130860E2F7089526B381E090E0062E02C0880FD7
S1130870991F0A94E2F730E08223932302C09595EE
S113088087956A95E2F7089523B381E090E0062EF8
S113089002C0880F991F0A94E2F730E08223932361
S11308A002C0959587956A95E2F7089520B381E093
S11308B090E0062E02C0880F991F0A94E2F730E0F8
S11308C08223932302C0959587956A95E2F708954C
S11308D041E050E0062E02C0440F551F0A94E2F78F
S11308E0282F30E0CA018223932302C0959587956F
S11308F06A95E2F7089595B79C7F8370892B85BF2D
S11309008FB780688FBF8BB780648BBF08951F92A9
S11309100F920FB60F9211242F933F934F935F932F
S11309206F937F938F939F93AF93BF93EF93FF93B3
S11309308091E1008F5F8093E1008091E10081303C
S113094069F482E00E947B0412BE1092E2001092CD
S1130950E3001092E4001092E50025C08091E100CC
S1130960823008F11092E10082B790E0A0E0B0E09C
S11309708093DD009093DE00A093DF00B093E0004D
S11309808091E2009091E300A091E400B091E50031
S11309908093D9009093DA00A093DB00B093DC003D
S11309A083E00E947B04FF91EF91BF91AF919F91EF
S11309B08F917F916F915F914F913F912F910F9004
S11309C00FBE0F901F901895FC01892BE1F18081D7
S11309D081113BC0828193819093EA008093E90066
S11309E083B7806883BF12BE8481811112C081E005
S11309F08093EB008181813029F486E08093EC00C0
S1130A0081E00895811123C085E08093EC0081E0AA
S1130A1008958130F1F48FB780688FBF82E08093AE
S1130A20EB0089B7816089BF8181813029F486E038
S1130A308093EC0081E0089581110DC085E08093DE
S1130A40EC0081E0089580E0089581E0089581E05C
S1130A50089581E0089581E0089583B7887F8360D5
S1130A6083BF0895811108C06F3F41F06093E60091
S1130A70609562BF81E0089581E0089580E0089563
S1130A809093E8008093E70008951F920F920FB6A9
S1130A900F9211242F933F934F935F936F937F9300
S1130AA08F939F93AF93BF93EF93FF938091E6004F
S1130AB0809582BFE091E700F091E8000995FF91ED
S1130AC0EF91BF91AF919F918F917F916F915F91C2
S1130AD04F913F912F910F900FBE0F901F9018953B
S1130AE0AA1BBB1B51E107C0AA1FBB1FA617B70750
S1130AF010F0A61BB70B881F991F5A95A9F780956C
S1130B009095BC01CD010895EE0FFF1F0590F4915F
S10B0B10E02D0994F894FFCFD5
S10D0B18300000FF000100127A0013
S9030000FC
